{
  "_format": "hh-sol-artifact-1",
  "contractName": "YourCollectible",
  "sourceName": "contracts/YourCollectible.sol",
  "abi": [
    {
      "inputs": [],
      "stateMutability": "nonpayable",
      "type": "constructor"
    },
    {
      "anonymous": false,
      "inputs": [
        {
          "indexed": true,
          "internalType": "address",
          "name": "owner",
          "type": "address"
        },
        {
          "indexed": true,
          "internalType": "address",
          "name": "approved",
          "type": "address"
        },
        {
          "indexed": true,
          "internalType": "uint256",
          "name": "tokenId",
          "type": "uint256"
        }
      ],
      "name": "Approval",
      "type": "event"
    },
    {
      "anonymous": false,
      "inputs": [
        {
          "indexed": true,
          "internalType": "address",
          "name": "owner",
          "type": "address"
        },
        {
          "indexed": true,
          "internalType": "address",
          "name": "operator",
          "type": "address"
        },
        {
          "indexed": false,
          "internalType": "bool",
          "name": "approved",
          "type": "bool"
        }
      ],
      "name": "ApprovalForAll",
      "type": "event"
    },
    {
      "anonymous": false,
      "inputs": [
        {
          "indexed": true,
          "internalType": "address",
          "name": "previousOwner",
          "type": "address"
        },
        {
          "indexed": true,
          "internalType": "address",
          "name": "newOwner",
          "type": "address"
        }
      ],
      "name": "OwnershipTransferred",
      "type": "event"
    },
    {
      "anonymous": false,
      "inputs": [
        {
          "indexed": true,
          "internalType": "address",
          "name": "from",
          "type": "address"
        },
        {
          "indexed": true,
          "internalType": "address",
          "name": "to",
          "type": "address"
        },
        {
          "indexed": true,
          "internalType": "uint256",
          "name": "tokenId",
          "type": "uint256"
        }
      ],
      "name": "Transfer",
      "type": "event"
    },
    {
      "inputs": [
        {
          "internalType": "address",
          "name": "to",
          "type": "address"
        },
        {
          "internalType": "uint256",
          "name": "tokenId",
          "type": "uint256"
        }
      ],
      "name": "approve",
      "outputs": [],
      "stateMutability": "nonpayable",
      "type": "function"
    },
    {
      "inputs": [
        {
          "internalType": "address",
          "name": "owner",
          "type": "address"
        }
      ],
      "name": "balanceOf",
      "outputs": [
        {
          "internalType": "uint256",
          "name": "",
          "type": "uint256"
        }
      ],
      "stateMutability": "view",
      "type": "function"
    },
    {
      "inputs": [
        {
          "internalType": "uint256",
          "name": "tokenId",
          "type": "uint256"
        }
      ],
      "name": "getApproved",
      "outputs": [
        {
          "internalType": "address",
          "name": "",
          "type": "address"
        }
      ],
      "stateMutability": "view",
      "type": "function"
    },
    {
      "inputs": [
        {
          "internalType": "address",
          "name": "owner",
          "type": "address"
        },
        {
          "internalType": "address",
          "name": "operator",
          "type": "address"
        }
      ],
      "name": "isApprovedForAll",
      "outputs": [
        {
          "internalType": "bool",
          "name": "",
          "type": "bool"
        }
      ],
      "stateMutability": "view",
      "type": "function"
    },
    {
      "inputs": [
        {
          "internalType": "address",
          "name": "to",
          "type": "address"
        },
        {
          "internalType": "string",
          "name": "uri",
          "type": "string"
        }
      ],
      "name": "mintItem",
      "outputs": [
        {
          "internalType": "uint256",
          "name": "",
          "type": "uint256"
        }
      ],
      "stateMutability": "nonpayable",
      "type": "function"
    },
    {
      "inputs": [],
      "name": "name",
      "outputs": [
        {
          "internalType": "string",
          "name": "",
          "type": "string"
        }
      ],
      "stateMutability": "view",
      "type": "function"
    },
    {
      "inputs": [],
      "name": "owner",
      "outputs": [
        {
          "internalType": "address",
          "name": "",
          "type": "address"
        }
      ],
      "stateMutability": "view",
      "type": "function"
    },
    {
      "inputs": [
        {
          "internalType": "uint256",
          "name": "tokenId",
          "type": "uint256"
        }
      ],
      "name": "ownerOf",
      "outputs": [
        {
          "internalType": "address",
          "name": "",
          "type": "address"
        }
      ],
      "stateMutability": "view",
      "type": "function"
    },
    {
      "inputs": [],
      "name": "renounceOwnership",
      "outputs": [],
      "stateMutability": "nonpayable",
      "type": "function"
    },
    {
      "inputs": [
        {
          "internalType": "address",
          "name": "from",
          "type": "address"
        },
        {
          "internalType": "address",
          "name": "to",
          "type": "address"
        },
        {
          "internalType": "uint256",
          "name": "tokenId",
          "type": "uint256"
        }
      ],
      "name": "safeTransferFrom",
      "outputs": [],
      "stateMutability": "nonpayable",
      "type": "function"
    },
    {
      "inputs": [
        {
          "internalType": "address",
          "name": "from",
          "type": "address"
        },
        {
          "internalType": "address",
          "name": "to",
          "type": "address"
        },
        {
          "internalType": "uint256",
          "name": "tokenId",
          "type": "uint256"
        },
        {
          "internalType": "bytes",
          "name": "_data",
          "type": "bytes"
        }
      ],
      "name": "safeTransferFrom",
      "outputs": [],
      "stateMutability": "nonpayable",
      "type": "function"
    },
    {
      "inputs": [
        {
          "internalType": "address",
          "name": "operator",
          "type": "address"
        },
        {
          "internalType": "bool",
          "name": "approved",
          "type": "bool"
        }
      ],
      "name": "setApprovalForAll",
      "outputs": [],
      "stateMutability": "nonpayable",
      "type": "function"
    },
    {
      "inputs": [
        {
          "internalType": "bytes4",
          "name": "interfaceId",
          "type": "bytes4"
        }
      ],
      "name": "supportsInterface",
      "outputs": [
        {
          "internalType": "bool",
          "name": "",
          "type": "bool"
        }
      ],
      "stateMutability": "view",
      "type": "function"
    },
    {
      "inputs": [],
      "name": "symbol",
      "outputs": [
        {
          "internalType": "string",
          "name": "",
          "type": "string"
        }
      ],
      "stateMutability": "view",
      "type": "function"
    },
    {
      "inputs": [
        {
          "internalType": "uint256",
          "name": "index",
          "type": "uint256"
        }
      ],
      "name": "tokenByIndex",
      "outputs": [
        {
          "internalType": "uint256",
          "name": "",
          "type": "uint256"
        }
      ],
      "stateMutability": "view",
      "type": "function"
    },
    {
      "inputs": [
        {
          "internalType": "address",
          "name": "owner",
          "type": "address"
        },
        {
          "internalType": "uint256",
          "name": "index",
          "type": "uint256"
        }
      ],
      "name": "tokenOfOwnerByIndex",
      "outputs": [
        {
          "internalType": "uint256",
          "name": "",
          "type": "uint256"
        }
      ],
      "stateMutability": "view",
      "type": "function"
    },
    {
      "inputs": [
        {
          "internalType": "uint256",
          "name": "tokenId",
          "type": "uint256"
        }
      ],
      "name": "tokenURI",
      "outputs": [
        {
          "internalType": "string",
          "name": "",
          "type": "string"
        }
      ],
      "stateMutability": "view",
      "type": "function"
    },
    {
      "inputs": [],
      "name": "totalSupply",
      "outputs": [
        {
          "internalType": "uint256",
          "name": "",
          "type": "uint256"
        }
      ],
      "stateMutability": "view",
      "type": "function"
    },
    {
      "inputs": [
        {
          "internalType": "address",
          "name": "from",
          "type": "address"
        },
        {
          "internalType": "address",
          "name": "to",
          "type": "address"
        },
        {
          "internalType": "uint256",
          "name": "tokenId",
          "type": "uint256"
        }
      ],
      "name": "transferFrom",
      "outputs": [],
      "stateMutability": "nonpayable",
      "type": "function"
    },
    {
      "inputs": [
        {
          "internalType": "address",
          "name": "newOwner",
          "type": "address"
        }
      ],
      "name": "transferOwnership",
      "outputs": [],
      "stateMutability": "nonpayable",
      "type": "function"
    }
  ],
  "bytecode": "0x60806040523480156200001157600080fd5b50604080518082018252600f81526e596f7572436f6c6c65637469626c6560881b6020808301918252835180850190945260038452622ca1a160e91b9084015281519192916200006491600091620000f3565b5080516200007a906001906020840190620000f3565b50505062000097620000916200009d60201b60201c565b620000a1565b620001d6565b3390565b600b80546001600160a01b038381166001600160a01b0319831681179093556040519116919082907f8be0079c531659141344cd1fd0a4f28419497f9722a3daafe3b4186f6b6457e090600090a35050565b828054620001019062000199565b90600052602060002090601f01602090048101928262000125576000855562000170565b82601f106200014057805160ff191683800117855562000170565b8280016001018555821562000170579182015b828111156200017057825182559160200191906001019062000153565b506200017e92915062000182565b5090565b5b808211156200017e576000815560010162000183565b600181811c90821680620001ae57607f821691505b60208210811415620001d057634e487b7160e01b600052602260045260246000fd5b50919050565b611d9580620001e66000396000f3fe608060405234801561001057600080fd5b506004361061012c5760003560e01c80636352211e116100ad578063a22cb46511610071578063a22cb4651461026a578063b88d4fde1461027d578063c87b56dd14610290578063e985e9c5146102a3578063f2fde38b146102df57600080fd5b80636352211e1461022357806370a0823114610236578063715018a6146102495780638da5cb5b1461025157806395d89b411461026257600080fd5b806318160ddd116100f457806318160ddd146101cf57806323b872dd146101d75780632f745c59146101ea57806342842e0e146101fd5780634f6ccce71461021057600080fd5b806301ffc9a71461013157806306fdde0314610159578063081812fc1461016e578063095ea7b314610199578063110bcd45146101ae575b600080fd5b61014461013f366004611a90565b6102f2565b60405190151581526020015b60405180910390f35b610161610303565b6040516101509190611b78565b61018161017c366004611ac8565b610395565b6040516001600160a01b039091168152602001610150565b6101ac6101a7366004611a67565b610422565b005b6101c16101bc366004611a08565b610538565b604051908152602001610150565b6008546101c1565b6101ac6101e536600461191a565b610570565b6101c16101f8366004611a67565b6105a1565b6101ac61020b36600461191a565b610637565b6101c161021e366004611ac8565b610652565b610181610231366004611ac8565b6106f3565b6101c16102443660046118ce565b61076a565b6101ac6107f1565b600b546001600160a01b0316610181565b610161610857565b6101ac6102783660046119ce565b610866565b6101ac61028b366004611955565b610875565b61016161029e366004611ac8565b6108ad565b6101446102b13660046118e8565b6001600160a01b03918216600090815260056020908152604080832093909416825291909152205460ff1690565b6101ac6102ed3660046118ce565b6108b8565b60006102fd82610983565b92915050565b60606000805461031290611c9d565b80601f016020809104026020016040519081016040528092919081815260200182805461033e90611c9d565b801561038b5780601f106103605761010080835404028352916020019161038b565b820191906000526020600020905b81548152906001019060200180831161036e57829003601f168201915b5050505050905090565b60006103a0826109a8565b6104065760405162461bcd60e51b815260206004820152602c60248201527f4552433732313a20617070726f76656420717565727920666f72206e6f6e657860448201526b34b9ba32b73a103a37b5b2b760a11b60648201526084015b60405180910390fd5b506000908152600460205260409020546001600160a01b031690565b600061042d826106f3565b9050806001600160a01b0316836001600160a01b0316141561049b5760405162461bcd60e51b815260206004820152602160248201527f4552433732313a20617070726f76616c20746f2063757272656e74206f776e656044820152603960f91b60648201526084016103fd565b336001600160a01b03821614806104b757506104b781336102b1565b6105295760405162461bcd60e51b815260206004820152603860248201527f4552433732313a20617070726f76652063616c6c6572206973206e6f74206f7760448201527f6e6572206e6f7220617070726f76656420666f7220616c6c000000000000000060648201526084016103fd565b61053383836109c5565b505050565b6000610548600c80546001019055565b6000610553600c5490565b905061055f8482610a33565b6105698184610a4d565b9392505050565b61057a3382610ad8565b6105965760405162461bcd60e51b81526004016103fd90611bdd565b610533838383610bc2565b60006105ac8361076a565b821061060e5760405162461bcd60e51b815260206004820152602b60248201527f455243373231456e756d657261626c653a206f776e657220696e646578206f7560448201526a74206f6620626f756e647360a81b60648201526084016103fd565b506001600160a01b03919091166000908152600660209081526040808320938352929052205490565b61053383838360405180602001604052806000815250610875565b600061065d60085490565b82106106c05760405162461bcd60e51b815260206004820152602c60248201527f455243373231456e756d657261626c653a20676c6f62616c20696e646578206f60448201526b7574206f6620626f756e647360a01b60648201526084016103fd565b600882815481106106e157634e487b7160e01b600052603260045260246000fd5b90600052602060002001549050919050565b6000818152600260205260408120546001600160a01b0316806102fd5760405162461bcd60e51b815260206004820152602960248201527f4552433732313a206f776e657220717565727920666f72206e6f6e657869737460448201526832b73a103a37b5b2b760b91b60648201526084016103fd565b60006001600160a01b0382166107d55760405162461bcd60e51b815260206004820152602a60248201527f4552433732313a2062616c616e636520717565727920666f7220746865207a65604482015269726f206164647265737360b01b60648201526084016103fd565b506001600160a01b031660009081526003602052604090205490565b600b546001600160a01b0316331461084b5760405162461bcd60e51b815260206004820181905260248201527f4f776e61626c653a2063616c6c6572206973206e6f7420746865206f776e657260448201526064016103fd565b6108556000610d69565b565b60606001805461031290611c9d565b610871338383610dbb565b5050565b61087f3383610ad8565b61089b5760405162461bcd60e51b81526004016103fd90611bdd565b6108a784848484610e8a565b50505050565b60606102fd82610ebd565b600b546001600160a01b031633146109125760405162461bcd60e51b815260206004820181905260248201527f4f776e61626c653a2063616c6c6572206973206e6f7420746865206f776e657260448201526064016103fd565b6001600160a01b0381166109775760405162461bcd60e51b815260206004820152602660248201527f4f776e61626c653a206e6577206f776e657220697320746865207a65726f206160448201526564647265737360d01b60648201526084016103fd565b61098081610d69565b50565b60006001600160e01b0319821663780e9d6360e01b14806102fd57506102fd82611049565b6000908152600260205260409020546001600160a01b0316151590565b600081815260046020526040902080546001600160a01b0319166001600160a01b03841690811790915581906109fa826106f3565b6001600160a01b03167f8c5be1e5ebec7d5bd14f71427d1e84f3dd0314c0f7b2291e5b200ac8c7c3b92560405160405180910390a45050565b610871828260405180602001604052806000815250611099565b610a56826109a8565b610ab95760405162461bcd60e51b815260206004820152602e60248201527f45524337323155524953746f726167653a2055524920736574206f66206e6f6e60448201526d32bc34b9ba32b73a103a37b5b2b760911b60648201526084016103fd565b6000828152600a602090815260409091208251610533928401906117a3565b6000610ae3826109a8565b610b445760405162461bcd60e51b815260206004820152602c60248201527f4552433732313a206f70657261746f7220717565727920666f72206e6f6e657860448201526b34b9ba32b73a103a37b5b2b760a11b60648201526084016103fd565b6000610b4f836106f3565b9050806001600160a01b0316846001600160a01b03161480610b8a5750836001600160a01b0316610b7f84610395565b6001600160a01b0316145b80610bba57506001600160a01b0380821660009081526005602090815260408083209388168352929052205460ff165b949350505050565b826001600160a01b0316610bd5826106f3565b6001600160a01b031614610c395760405162461bcd60e51b815260206004820152602560248201527f4552433732313a207472616e736665722066726f6d20696e636f72726563742060448201526437bbb732b960d91b60648201526084016103fd565b6001600160a01b038216610c9b5760405162461bcd60e51b8152602060048201526024808201527f4552433732313a207472616e7366657220746f20746865207a65726f206164646044820152637265737360e01b60648201526084016103fd565b610ca68383836110cc565b610cb16000826109c5565b6001600160a01b0383166000908152600360205260408120805460019290610cda908490611c5a565b90915550506001600160a01b0382166000908152600360205260408120805460019290610d08908490611c2e565b909155505060008181526002602052604080822080546001600160a01b0319166001600160a01b0386811691821790925591518493918716917fddf252ad1be2c89b69c2b068fc378daa952ba7f163c4a11628f55a4df523b3ef91a4505050565b600b80546001600160a01b038381166001600160a01b0319831681179093556040519116919082907f8be0079c531659141344cd1fd0a4f28419497f9722a3daafe3b4186f6b6457e090600090a35050565b816001600160a01b0316836001600160a01b03161415610e1d5760405162461bcd60e51b815260206004820152601960248201527f4552433732313a20617070726f766520746f2063616c6c65720000000000000060448201526064016103fd565b6001600160a01b03838116600081815260056020908152604080832094871680845294825291829020805460ff191686151590811790915591519182527f17307eab39ab6107e8899845ad3d59bd9653f200f220920489ca2b5937696c31910160405180910390a3505050565b610e95848484610bc2565b610ea1848484846110d7565b6108a75760405162461bcd60e51b81526004016103fd90611b8b565b6060610ec8826109a8565b610f2e5760405162461bcd60e51b815260206004820152603160248201527f45524337323155524953746f726167653a2055524920717565727920666f72206044820152703737b732bc34b9ba32b73a103a37b5b2b760791b60648201526084016103fd565b6000828152600a602052604081208054610f4790611c9d565b80601f0160208091040260200160405190810160405280929190818152602001828054610f7390611c9d565b8015610fc05780601f10610f9557610100808354040283529160200191610fc0565b820191906000526020600020905b815481529060010190602001808311610fa357829003601f168201915b505050505090506000610ffb60408051808201909152601581527468747470733a2f2f697066732e696f2f697066732f60581b602082015290565b905080516000141561100e575092915050565b815115611040578082604051602001611028929190611b0c565b60405160208183030381529060405292505050919050565b610bba846111e4565b60006001600160e01b031982166380ac58cd60e01b148061107a57506001600160e01b03198216635b5e139f60e01b145b806102fd57506301ffc9a760e01b6001600160e01b03198316146102fd565b6110a383836112d8565b6110b060008484846110d7565b6105335760405162461bcd60e51b81526004016103fd90611b8b565b610533838383611417565b60006001600160a01b0384163b156111d957604051630a85bd0160e11b81526001600160a01b0385169063150b7a029061111b903390899088908890600401611b3b565b602060405180830381600087803b15801561113557600080fd5b505af1925050508015611165575060408051601f3d908101601f1916820190925261116291810190611aac565b60015b6111bf573d808015611193576040519150601f19603f3d011682016040523d82523d6000602084013e611198565b606091505b5080516111b75760405162461bcd60e51b81526004016103fd90611b8b565b805181602001fd5b6001600160e01b031916630a85bd0160e11b149050610bba565b506001949350505050565b60606111ef826109a8565b6112535760405162461bcd60e51b815260206004820152602f60248201527f4552433732314d657461646174613a2055524920717565727920666f72206e6f60448201526e3732bc34b9ba32b73a103a37b5b2b760891b60648201526084016103fd565b600061128760408051808201909152601581527468747470733a2f2f697066732e696f2f697066732f60581b602082015290565b905060008151116112a75760405180602001604052806000815250610569565b806112b1846114cf565b6040516020016112c2929190611b0c565b6040516020818303038152906040529392505050565b6001600160a01b03821661132e5760405162461bcd60e51b815260206004820181905260248201527f4552433732313a206d696e7420746f20746865207a65726f206164647265737360448201526064016103fd565b611337816109a8565b156113845760405162461bcd60e51b815260206004820152601c60248201527f4552433732313a20746f6b656e20616c7265616479206d696e7465640000000060448201526064016103fd565b611390600083836110cc565b6001600160a01b03821660009081526003602052604081208054600192906113b9908490611c2e565b909155505060008181526002602052604080822080546001600160a01b0319166001600160a01b03861690811790915590518392907fddf252ad1be2c89b69c2b068fc378daa952ba7f163c4a11628f55a4df523b3ef908290a45050565b6001600160a01b0383166114725761146d81600880546000838152600960205260408120829055600182018355919091527ff3f7a9fe364faab93b216da50a3214154f22a0a2b415b23a84c8169e8b636ee30155565b611495565b816001600160a01b0316836001600160a01b0316146114955761149583826115e9565b6001600160a01b0382166114ac5761053381611686565b826001600160a01b0316826001600160a01b03161461053357610533828261175f565b6060816114f35750506040805180820190915260018152600360fc1b602082015290565b8160005b811561151d578061150781611cd8565b91506115169050600a83611c46565b91506114f7565b60008167ffffffffffffffff81111561154657634e487b7160e01b600052604160045260246000fd5b6040519080825280601f01601f191660200182016040528015611570576020820181803683370190505b5090505b8415610bba57611585600183611c5a565b9150611592600a86611cf3565b61159d906030611c2e565b60f81b8183815181106115c057634e487b7160e01b600052603260045260246000fd5b60200101906001600160f81b031916908160001a9053506115e2600a86611c46565b9450611574565b600060016115f68461076a565b6116009190611c5a565b600083815260076020526040902054909150808214611653576001600160a01b03841660009081526006602090815260408083208584528252808320548484528184208190558352600790915290208190555b5060009182526007602090815260408084208490556001600160a01b039094168352600681528383209183525290812055565b60085460009061169890600190611c5a565b600083815260096020526040812054600880549394509092849081106116ce57634e487b7160e01b600052603260045260246000fd5b9060005260206000200154905080600883815481106116fd57634e487b7160e01b600052603260045260246000fd5b600091825260208083209091019290925582815260099091526040808220849055858252812055600880548061174357634e487b7160e01b600052603160045260246000fd5b6001900381819060005260206000200160009055905550505050565b600061176a8361076a565b6001600160a01b039093166000908152600660209081526040808320868452825280832085905593825260079052919091209190915550565b8280546117af90611c9d565b90600052602060002090601f0160209004810192826117d15760008555611817565b82601f106117ea57805160ff1916838001178555611817565b82800160010185558215611817579182015b828111156118175782518255916020019190600101906117fc565b50611823929150611827565b5090565b5b808211156118235760008155600101611828565b600067ffffffffffffffff8084111561185757611857611d33565b604051601f8501601f19908116603f0116810190828211818310171561187f5761187f611d33565b8160405280935085815286868601111561189857600080fd5b858560208301376000602087830101525050509392505050565b80356001600160a01b03811681146118c957600080fd5b919050565b6000602082840312156118df578081fd5b610569826118b2565b600080604083850312156118fa578081fd5b611903836118b2565b9150611911602084016118b2565b90509250929050565b60008060006060848603121561192e578081fd5b611937846118b2565b9250611945602085016118b2565b9150604084013590509250925092565b6000806000806080858703121561196a578081fd5b611973856118b2565b9350611981602086016118b2565b925060408501359150606085013567ffffffffffffffff8111156119a3578182fd5b8501601f810187136119b3578182fd5b6119c28782356020840161183c565b91505092959194509250565b600080604083850312156119e0578182fd5b6119e9836118b2565b9150602083013580151581146119fd578182fd5b809150509250929050565b60008060408385031215611a1a578182fd5b611a23836118b2565b9150602083013567ffffffffffffffff811115611a3e578182fd5b8301601f81018513611a4e578182fd5b611a5d8582356020840161183c565b9150509250929050565b60008060408385031215611a79578182fd5b611a82836118b2565b946020939093013593505050565b600060208284031215611aa1578081fd5b813561056981611d49565b600060208284031215611abd578081fd5b815161056981611d49565b600060208284031215611ad9578081fd5b5035919050565b60008151808452611af8816020860160208601611c71565b601f01601f19169290920160200192915050565b60008351611b1e818460208801611c71565b835190830190611b32818360208801611c71565b01949350505050565b6001600160a01b0385811682528416602082015260408101839052608060608201819052600090611b6e90830184611ae0565b9695505050505050565b6020815260006105696020830184611ae0565b60208082526032908201527f4552433732313a207472616e7366657220746f206e6f6e20455243373231526560408201527131b2b4bb32b91034b6b83632b6b2b73a32b960711b606082015260800190565b60208082526031908201527f4552433732313a207472616e736665722063616c6c6572206973206e6f74206f6040820152701ddb995c881b9bdc88185c1c1c9bdd9959607a1b606082015260800190565b60008219821115611c4157611c41611d07565b500190565b600082611c5557611c55611d1d565b500490565b600082821015611c6c57611c6c611d07565b500390565b60005b83811015611c8c578181015183820152602001611c74565b838111156108a75750506000910152565b600181811c90821680611cb157607f821691505b60208210811415611cd257634e487b7160e01b600052602260045260246000fd5b50919050565b6000600019821415611cec57611cec611d07565b5060010190565b600082611d0257611d02611d1d565b500690565b634e487b7160e01b600052601160045260246000fd5b634e487b7160e01b600052601260045260246000fd5b634e487b7160e01b600052604160045260246000fd5b6001600160e01b03198116811461098057600080fdfea26469706673582212209fbcd10caa4b5d4294d7d1e908c829f8926ef8c6fcbfb2871719232de334044464736f6c63430008040033",
  "linkReferences": {},
  "deployedLinkReferences": {}
}